:100000000C94E0000C9408010C9408010C945C0919
:100010000C945C090C945C090C9408010C94080184
:100020000C9408010C9408010C9408010C9408012C
:100030000C9408010C9408010C9408010C9408011C
:100040000C9412090C9408010C94E0080C94BA0862
:100050000C9408010C9408010C9408010C940801FC
:100060000C9408010C94080100407A10F35A00A087
:10007000724E18090010A5D4E80000E87648170071
:1000800000E40B54020000CA9A3B000000E1F505B1
:10009000000080969800000040420F000000A086FB
:1000A00001000000102700000000E803000000002D
:1000B0006400000000000A000000000001000000D1
:1000C00000002C76D888DC674F0823DFC1DFAE59EB
:1000D000E1B1B796E5E3E453C63AE651997696E87E
:1000E000E6C28426EB898C9B62ED407C6FFCEFBC02
:1000F0009C9F40F2BAA56FA5F490055A2AF75C932D
:100100006B6CF9676DC11BFCE0E40D47FEF520E662
:10011000B500D0ED902E0300943577050080841E45
:10012000080000204E0A000000C80C333333330FA0
:10013000986E12831141EF8D2114893BE65516CF3D
:10014000FEE6DB18D1844B381BF77C1D901DA4BB49
:10015000E424203284725E228100C9F124ECA1E5FE
:100160003D2700000000240027002A0000000008AE
:10017000000201000003040700000000000000006E
:1001800000000000230026002900000000002500D8
:1001900028002B00040404040404040402020202E4
:1001A000020203030303030301020408102040803A
:1001B000010204081020010204081020D40938119B
:1001C00011241FBECFEFD8E0DEBFCDBF23E0A0EDEE
:1001D000B1E001C01D92A637B207E1F711E0A0E03F
:1001E000B1E0ECE8F1E302C005900D92A03DB1074B
:1001F000D9F710E0CFEDD0E004C02197FE010E94B6
:10020000A516CE3DD107C9F70E94450B0C94B9182D
:100210000C9400000F931F93CF93DF93C0911803AA
:10022000E9E1F3E0CD3211F0E8E1F3E08F0120E005
:1002300030E0A901D801DD918D0180ED8D0F8A306C
:1002400090F4AAE0B0E00E94F6142D2FDD0F330BDE
:10025000440B550B260F371F481F591F20533109D8
:1002600041095109E7CFA4E6B0E00E94F614AB01C2
:10027000BC01DF01819190ED980F9A30D0F38E325E
:1002800059F511968C91119790ED980F9A3020F5B1
:10029000082E000C990BC0972AE0289F8001299F07
:1002A000100D1124012E000C220B330B400F511F97
:1002B000621F731F12968C9190ED980F9A3060F424
:1002C000082E000C990BC097092E000CAA0BBB0B33
:1002D000480F591F6A1F7B1FCD3239F47095609506
:1002E000509541955F4F6F4F7F4FCB01BA01DF9122
:1002F000CF911F910F9108954F925F926F927F92CD
:100300008F929F92AF92BF92CF92DF92EF92FF9225
:100310001F93CF93DF93C8E1D3E0FE01C12CD12C12
:100320007601119180ED810F8A30A8F4AAE0B0E047
:10033000A70196010E94F614C12E110FDD08EE08E8
:10034000FF08C60ED71EE81EF91E80E3C81AD108A2
:10035000E108F108E6CFC701B60124E630E040E04D
:1003600050E00E9483169B01AC0160EA76E881E0D0
:1003700090E00E945F164B015C019E01899190ED17
:10038000980F9A30D0F38E3221F5E901219680E161
:10039000482E87E2582E612C712CA99180ED8A0F8E
:1003A0008A30B8F40A2E000CBB0BD097A30192013F
:1003B0000E94AB16860E971EA81EB91EC301B2017D
:1003C0002AE030E040E050E00E94831629013A0123
:1003D000E4CFC701B60124E630E040E050E00E94DF
:1003E000831660E472E48FE090E00E945F166B0178
:1003F0007C01C501B4016D5F7F4F8F4F9F4F26E099
:1004000030E040E050E00E948316C701B601620F61
:10041000731F841F951FDF91CF911F91FF90EF9065
:10042000DF90CF90BF90AF909F908F907F906F9014
:100430005F904F900895AF92BF92CF92DF92EF926C
:10044000FF920F931F93CF93DF936C017B018B017E
:10045000040F151FEB015E01AE18BF08C017D107CE
:1004600059F06991D601ED91FC910190F081E02D58
:10047000C6010995892B79F7C501DF91CF911F91AD
:100480000F91FF90EF90DF90CF90BF90AF900895C5
:10049000FC01538D448D252F30E0842F90E0821B8A
:1004A000930B541710F0CF96089501970895FC010F
:1004B000918D828D981761F0A28DAE0FBF2FB11D67
:1004C0005D968C91928D9F5F9F73928F90E00895BF
:1004D0008FEF9FEF0895FC01918D828D981731F079
:1004E000828DE80FF11D858D90E008958FEF9FEFCD
:1004F0000895FC01918D228D892F90E0805C9F4FA3
:10050000821B91098F739927089585E292E00E94DA
:10051000790221E0892B09F420E0822F089580E000
:1005200090E0892B29F00E94850281110C94000033
:100530000895FC01A48DA80FB92FB11DA35ABF4F78
:100540002C91848D90E001968F739927848FA689D2
:10055000B7892C93A089B1898C91837080648C9326
:10056000938D848D981306C00288F389E02D8081D5
:100570008F7D80830895EF92FF920F931F93CF9307
:10058000DF93EC0181E0888F9B8D8C8D98131AC0CE
:10059000E889F989808185FF15C09FB7F894EE89B5
:1005A000FF896083E889F989808183708064808312
:1005B0009FBF81E090E0DF91CF911F910F91FF905D
:1005C000EF900895F62E0B8D10E00F5F1F4F0F7305
:1005D0001127E02E8C8D8E110CC00FB607FCFACFC0
:1005E000E889F989808185FFF5CFCE010E949902C3
:1005F000F1CFEB8DEC0FFD2FF11DE35AFF4FF08291
:100600009FB7F8940B8FEA89FB8980818062CFCFF6
:10061000CF93DF93EC01888D8823B9F0AA89BB8939
:10062000E889F9898C9185FD03C0808186FD0DC024
:100630000FB607FCF7CF8C9185FFF2CF808185FF45
:10064000EDCFCE010E949902E9CFDF91CF910895BD
:10065000833081F028F4813099F08230A9F0089538
:100660008730A9F08830C9F08430B1F480918000DF
:100670008F7D03C0809180008F77809380000895E4
:1006800084B58F7784BD089584B58F7DFBCF80912D
:10069000B0008F778093B00008958091B0008F7D77
:1006A000F9CFCF93DF93282F30E0F901E459FE4FC3
:1006B0008491F901E855FE4FD491F901EC56FE4FB3
:1006C000C491CC23A1F081110E942803EC2FF0E00B
:1006D000EE0FFF1FE058FE4FA591B491EC91ED2372
:1006E00081E090E009F480E0DF91CF91089580E00F
:1006F00090E0FACF1F93CF93DF93282F30E0F901DA
:10070000E459FE4F8491F901E855FE4FD491F90167
:10071000EC56FE4FC491CC23A9F0162F81110E94F4
:100720002803EC2FF0E0EE0FFF1FE657FE4FA591D8
:10073000B4918FB7F894EC91111108C0D095DE23D5
:10074000DC938FBFDF91CF911F910895DE2BF8CFFF
:10075000CF93DF9390E0FC01E855FE4F24918C5637
:100760009E4FFC0184918823D1F090E0880F991F5F
:10077000FC01EE59FE4FA591B491FC01E657FE4FE6
:10078000C591D49161110EC09FB7F8948C91E22F5E
:10079000E0958E238C932881E223E8839FBFDF912D
:1007A000CF9108958FB7F894EC91E22BEC938FBF23
:1007B000F6CF3FB7F8948091150290911602A09160
:1007C0001702B091180226B5A89B05C02F3F19F05B
:1007D0000196A11DB11D3FBFBA2FA92F982F8827C1
:1007E000BC01CD01620F711D811D911D42E0660F9C
:1007F000771F881F991F4A95D1F708958F929F926E
:10080000AF92BF92CF92DF92EF92FF924B015C01C9
:100810000E94D9036B017C010E94D9036C197D09E8
:100820008E099F09683E734081059105A8F321E078
:10083000821A9108A108B10888EEC80E83E0D81E7C
:10084000E11CF11C81149104A104B10429F7FF906B
:10085000EF90DF90CF90BF90AF909F908F900895D2
:100860002FB7F894609111027091120280911302D7
:10087000909114022FBF089520911B0230911C0209
:100880002817390771F49091190280911A0298176C
:1008900041F0E0911902F0E0E053FE4F808190E0DA
:1008A00008958FEF9FEF08950895EF92FF920F93B1
:1008B0001F93CF93DF93DC015C96ED90FC905D97E6
:1008C000E114F10479F481E090E013969C938E9307
:1008D000129790E080E0DF91CF911F910F91FF90F0
:1008E000EF9008955196ED91FC91529750968C910E
:1008F0005097982F90950FB75E962C915E97122F78
:10090000127021FD6095F8942081112319F1282B94
:100910002083E7012197F1F728E0462F50E030814E
:1009200060FF1AC0382B3083E7012197F1F7BA0135
:1009300075956795215089F7112381F0808189236E
:1009400080830FBF5C968D919C910197F1F781E0B8
:1009500090E0C1CF2923DCCF3923E5CF9081892BCB
:10096000EFCF20911B0230911C022817390771F438
:1009700080911A022091190290E0805C9F4F821BA7
:10098000910960E470E00E946F16089590E080E0A5
:10099000089520911B0230911C0228173907B9F4E1
:1009A0009091190280911A02981789F0E09119022A
:1009B000F0E0E053FE4F80812091190230E02F5F7C
:1009C0003F4F2F7333272093190290E008958FEF44
:1009D0009FEF0895089590E080E00895CF93DF930E
:1009E000EC0160E08E810E947A0361E08E810E94BA
:1009F0007A0360E08E810E947A038BE891E0019790
:100A0000F1F7DF91CF910895CF92DF92EF92FF92AD
:100A10000F931F93CF93DF936C017C0187E0E80E67
:100A2000F11CD0E0C0E0062F10E0B8010C2E02C08F
:100A3000759567950A94E2F76170F70181917F01DE
:100A40000E947A032196C430D10579F7C601DF915F
:100A5000CF911F910F91FF90EF90DF90CF900C946A
:100A6000EE04CF92DF92EF92FF920F931F93CF93FA
:100A7000DF93EC01F62E642F8C810E947A038D8126
:100A80008F3F19F060E00E947A030F2D10E08F85F0
:100A900084FF25C06E0187E0C80ED11CF12CE12C2B
:100AA000B8010E2C02C0759567950A94E2F7617043
:100AB000F60181916F010E947A03FFEFEF1AFF0A9E
:100AC00088E0E816F10461F7CE01DF91CF911F9124
:100AD0000F91FF90EF90DF90CF900C94EE04B8014F
:100AE00084E0759567958A95E1F7CE010E9404052B
:100AF0006F2DCE01DF91CF911F910F91FF90EF905D
:100B0000DF90CF900C94040540E0682F85E393E0DC
:100B10000C94310581E00E9484058BE39FE10197ED
:100B2000F1F70895CF93DF93823029F49091440335
:100B3000986090934403809348031092490380E4A3
:100B400080934A0380E180934B0380E580934C03BC
:100B500061E0809139030E94A80380913A038F3F9E
:100B600019F061E00E94A80361E080913B030E94BC
:100B7000A803C5E3D3E09E0125533340809144038D
:100B800084FD0BC084E090E021962817390744F4D7
:100B900061E08E810E94A803EECF88E090E0F4CF60
:100BA0008BE39DE00197F1F760E0809139030E94AB
:100BB0007A0360E080913B030E947A0380913A03BC
:100BC0008F3F19F060E00E947A038091440384FD16
:100BD00034C063E085E393E00E940405CBE4D6E4EF
:100BE000CE010197F1F763E085E393E00E940405ED
:100BF0002197F1F763E085E393E00E94040583E524
:100C000092E00197F1F762E085E393E00E9404052A
:100C10008091440380620E94840584E080934503B0
:100C20008CE00E9484050E948A0582E0809346033E
:100C300086E0DF91CF910C94840580620E94840548
:100C40008BE496E40197F1F78091440380620E945F
:100C5000840583E592E00197F1F780914403806277
:100C60000E948405D5CF90914803691710F06FEF6B
:100C7000690FE62FF0E0EB5CFC4F9489890F8068E8
:100C80000C94840541E00E94310581E090E00895D4
:100C9000FB0101900020E9F73197AF01461B570B8C
:100CA000DC01ED91FC910280F381E02D09940F931A
:100CB0001F93CF93DF93EC01ECE6F3E04481558181
:100CC00060817181E881F9810280F381E02D0995CD
:100CD0008C0166E371E0CE010E944806800F911FEF
:100CE000DF91CF911F910F9108958F929F92AF92B4
:100CF000BF92EF92FF920F931F93CF93DF93CDB7E5
:100D0000DEB7A1970FB6F894DEBF0FBECDBF7C0152
:100D1000FA01CB0119A2223008F42AE08E010F5DFE
:100D20001F4F822E912CB12CA12CBF01A501940143
:100D30000E948316F901CA016A300CF5605DD80182
:100D40006E938D01232B242B252B79F790E080E0E7
:100D5000109721F0BD01C7010E944806A1960FB669
:100D6000F894DEBF0FBECDBFDF91CF911F910F91E1
:100D7000FF90EF90BF90AF909F908F900895695C27
:100D8000DECFCF93DF93BC0185E292E00E9448065C
:100D9000EC0166E371E085E292E00E9448068C0F68
:100DA0009D1FDF91CF9108952F923F924F925F92B6
:100DB0006F927F928F929F92AF92BF92CF92DF926B
:100DC000EF92FF921F93CF93DF93EC016A017B01B7
:100DD000722EAB019601CB01B6010E945A1669E34F
:100DE00071E0811126C046015701E894B7F82FEF52
:100DF0003FEF4FE75FE7C501B4010E945A1681112A
:100E00000CC02FEF3FEF4FE75FE7C501B4010E9431
:100E1000D2136DE371E0181664F02FEF3FEF4FE748
:100E20005FE4C701B6010E9455161816B4F461E4D8
:100E300071E0CE01DF91CF911F91FF90EF90DF9095
:100E4000CF90BF90AF909F908F907F906F905F906A
:100E50004F903F902F900C9448062FEF3FEF4FE7B5
:100E60005FECC701B6010E94D21387FDE0CF20E0FE
:100E700030E0A901C701B6010E94D213312C212C08
:100E800087FF0DC0E881F9810190F081E02D6DE2CE
:100E9000CE0109951C01F7FAF094F7F8F09410E0F0
:100EA00060E070E080E09FE3711641F020E030E008
:100EB00040E251E40E94B4151F5FF6CFA7019601EE
:100EC0000E9448152B013C010E9426164B015C0133
:100ED0002AE0BC01A401CE010E9475067C01E20C4F
:100EE000F31C1123E1F1C501B4010E94D7139B014A
:100EF000AC01C301B2010E9447154B015C01E881BE
:100F0000F9810190F081E02D6EE2CE010995E80EA5
:100F1000F91E115020F120E030E040E251E4C5011B
:100F2000B4010E9438142B013C010E9426164B018B
:100F3000B12CA12C2AE0B501A401CE010E947506B6
:100F4000E80EF91EC501B4010E94D7139B01AC0144
:100F5000C301B2010E9447154B015C01DACFC70102
:100F6000DF91CF911F91FF90EF90DF90CF90BF90D6
:100F7000AF909F908F907F906F905F904F903F9039
:100F80002F9008950F931F93CF93DF93EC018881E7
:100F90009981009759F02A813B812617370730F055
:100FA00081E0DF91CF911F910F9108958B016F5FC9
:100FB0007F4F0E94EC17009759F0998388831B8319
:100FC0000A832C813D81232B59F7FC011082E8CF45
:100FD00080E0E7CFEF92FF920F931F93CF93DF93C1
:100FE000CDB7DEB764970FB6F894DEBF0FBECDBFA6
:100FF0008E010F5F1F4F22E044E00E9457117C01D9
:10100000FC0101900020E9F73197E81BF90B892BCF
:1010100071F480E064960FB6F894DEBF0FBECDBFCA
:10102000DF91CF911F910F91FF90EF90089530972E
:10103000F1F000917003109171030E0F1F1FB801A2
:101040008CE693E00E94C207882319F320916C0379
:1010500030916D038091700390917103B701820FFD
:10106000931F0E94B218109371030093700381E0E4
:10107000D1CFCF93DF93EC0188819981009711F054
:101080000E946317198218821D821C821B821A8299
:10109000DF91CF9108950F931F93CF93DF93EC01CE
:1010A0000C811D810E5F1F4FB8010E94C20788236B
:1010B00091F0288139818C819D8165E471E0820FF6
:1010C000931F0E94B2181D830C83CE01DF91CF9134
:1010D0001F910F910895CE010E943908F6CFEF922B
:1010E000FF920F931F93CF93DF93EC017B018A0153
:1010F000BA010E94C20781110BC0CE010E943908BB
:10110000CE01DF91CF911F910F91FF90EF90089545
:101110001D830C83B701888199810E94B218F0CF9A
:10112000CF93DF93EC01FB018617970749F06081AD
:1011300071816115710541F0448155810E946F08EC
:10114000CE01DF91CF9108950E943908F9CFFC01BB
:101150001182108213821282158214826CE673E06F
:101160000C949008FC0180819181009711F00C94FF
:10117000631708951F920F920FB60F9211242F93A9
:101180003F934F935F936F937F938F939F93AF930F
:10119000BF93EF93FF9385E292E00E949902FF9143
:1011A000EF91BF91AF919F918F917F916F915F91DF
:1011B0004F913F912F910F900FBE0F901F90189558
:1011C0001F920F920FB60F9211242F938F939F931C
:1011D000EF93FF93E0913502F09136028081E09128
:1011E0003B02F0913C0282FD1BC0908180913E0247
:1011F0008F5F8F7320913F02821741F0E0913E0292
:10120000F0E0EB5DFD4F958F80933E02FF91EF91F3
:101210009F918F912F910F900FBE0F901F90189557
:101220008081F4CF1F920F920FB60F9211242F934B
:101230003F938F939F93AF93BF93809111029091AF
:101240001202A0911302B09114023091100223E017
:10125000230F2D3758F50196A11DB11D20931002C3
:101260008093110290931202A0931302B093140280
:101270008091150290911602A0911702B091180268
:101280000196A11DB11D8093150290931602A093A3
:101290001702B0931802BF91AF919F918F913F9128
:1012A0002F910F900FBE0F901F90189526E8230FD7
:1012B0000296A11DB11DD2CF1F920F920FB60F92B1
:1012C00011242F933F934F935F936F937F938F934B
:1012D0009F93AF93BF93EF93FF93E0911B02F09125
:1012E0001C02309749F0A685B7858585968D91FFBC
:1012F00014C09C918923A1F4FF91EF91BF91AF910C
:101300009F918F917F916F915F914F913F912F911D
:101310000F900FBE0F901F9018959C91892361F735
:10132000A389B4899C918589809589238C9386892A
:1013300097890197F1F7608D718DA685B7855585E1
:1013400038E020E0CB010197F1F7822F90E09595EE
:101350008795282F4C91452309F02068315091F74B
:10136000868D81FD209580911A0290E001968F7301
:10137000992730911902381799F0A0911A02B0E01C
:10138000A053BE4F2C9380931A02828D938D0197A8
:10139000F1F7A389B4898C919589892B8C93ACCF73
:1013A000868D8160868FF1CFCF92DF92EF92FF9290
:1013B000109228021092270298EEC92E93E0D92E9F
:1013C000E12CF12CC0922902D0922A02E0922B0249
:1013D000F0922C028AE091E09093260280932502FD
:1013E00085EC90E0909332028093310284EC90E09F
:1013F000909334028093330280EC90E09093360215
:101400008093350281EC90E090933802809337020C
:1014100082EC90E090933A028093390286EC90E05F
:1014200090933C0280933B0210923E0210923F0246
:10143000109240021092410210926D0310926C03C0
:1014400010926F0310926E0310927103109270034A
:1014500050E040E068E371E08CE693E00E946F08A2
:101460001092500310924F03C0925103D092520336
:10147000E0925303F092540388E291E090934E037C
:1014800080934D03109264031092630310926603DD
:1014900010926503109268031092670310926A031A
:1014A0001092690360916B036E7F6D7F60936B0395
:1014B0006695617081E068278AE00E947A0361E0A6
:1014C0008AE00E94A803E2EBF1E0E491E0935D037F
:1014D000EEE9F1E0E491F0E0EE0FFF1FE657FE4F7A
:1014E0008591949190935F0380935E0360E089E01F
:1014F0000E94A80380916B0381FD04C061E089E034
:101500000E947A0389E080935903E1EBF1E0E491D2
:10151000E0935A03EDE9F1E0E491F0E0EE0FFF1FF4
:10152000E058FE4F8591949190935C0380935B0308
:1015300010923803109237038CE191E090933603B8
:101540008093350388E0809339038FEF80933A03CB
:1015500087E080933B0386E080933C0385E08093A3
:101560003D0384E080933E0383E080933F03109229
:1015700040031092410310924203109243031092D1
:10158000440381E00E9492054FEF5FEFBA01409360
:10159000C2025093C3026093C4027093C5021092BA
:1015A000CA021092CB021092CC021092CD028FEFA1
:1015B00099ECAAE9BBE38093D2029093D302A09363
:1015C000D402B093D5028093DA029093DB02A09309
:1015D000DC02B093DD028093E2029093E302A093D9
:1015E000E402B093E5028093EA029093EB02A093A9
:1015F000EC02B093ED028093F2029093F302A09379
:10160000F402B093F5024093FA025093FB02609308
:10161000FC027093FD028FEF90E0909303038093A0
:1016200002034093060350930703609308037093EB
:10163000090340930E0350930F03609310037093BC
:101640001103109216031092170382E08093270370
:10165000109228031092290310922A0310922B0350
:1016600010922C0310922D0310922E03109230032F
:1016700010922F031092320310923103109218032C
:10168000FF90EF90DF90CF900895CF93DF9300D03D
:1016900000D000D0CDB7DEB7789484B5826084BD29
:1016A00084B5816084BD85B5826085BD85B5816066
:1016B00085BD80916E00816080936E0010928100E4
:1016C000809181008260809381008091810081609F
:1016D0008093810080918000816080938000809160
:1016E000B10084608093B1008091B00081608093EC
:1016F000B00080917A00846080937A0080917A00B3
:10170000826080937A0080917A00816080937A0071
:1017100080917A00806880937A001092C100E091F5
:101720003502F091360282E08083E0913102F0913F
:1017300032021082E0913302F09134028FEC808308
:1017400010923D02E0913902F0913A0286E08083E6
:10175000E0913702F0913802808180618083E091CE
:101760003702F0913802808188608083E0913702EF
:10177000F0913802808180688083E0913702F09197
:10178000380280818F7D80831092680310926703F6
:101790001092660310926503109264031092630323
:1017A0008DE991E090936A038093690390915903C6
:1017B000963108F047C02DEB30E03093640320935E
:1017C00063032BE931E030936603209365032CE239
:1017D00031E030936803209367032091680084E030
:1017E000983048F031E09E3008F430E081E001C0EC
:1017F000880F3A95EAF7822B809368002DE630E057
:10180000983050F02BE630E09E3030F02CE630E09F
:10181000963110F030E020E03093610320936003B4
:10182000292F30E0983008F005C281E001C0880F10
:101830009A95EAF7809362038091690390916A0315
:101840000197F1F78091670390916803892B49F123
:10185000E0911B02F0911C0223E0ED34F20709F144
:10186000309739F0A389B4899C9185898095892323
:101870008C9380916B038E7F80936B0310921A027E
:10188000109219028DE493E090931C0280931B0246
:10189000E0916003F0916103808190916203892B54
:1018A000808382E00E94920560E080E00E9433061F
:1018B00068E471E085E393E00E94480661E080E01F
:1018C0000E9433066AE571E085E393E00E944806D2
:1018D00064EF71E080E090E00E94FE0360E08CE045
:1018E0000E94A80360E08BE00E94A80390E0E92E2C
:1018F00090E0F92E22E0D22ECC24C39488E391E02C
:101900000E94C10688E691E00E94C1068CE00E9418
:101910005103892BD9F78CE00E945103892BD9F30D
:101920000E9430044B015C018092210290922202BD
:10193000A0922302B09224028BE00E945103892BD3
:10194000D9F70E943004681979098A099B090E9415
:10195000D71320E030E04AE754E40E94B4159B011D
:10196000AC0160E070E080EA90E40E94B41520E0F1
:1019700030E041E655E40E94381420E030E04AE7C8
:1019800054E40E94B415AB01BC0140931D02509376
:101990001E0260931F027093200222E085E292E013
:1019A0000E94D40688E891E00E94C10640911D0281
:1019B00050911E0260911F027091200222E085E288
:1019C00092E00E94D40688E891E00E94C1066091EE
:1019D0001D0270911E0280911F02909120020E94B0
:1019E000EA07CE0101960E94A708CE0101960E9447
:1019F0004B08BC018CE693E00E949008CE01019652
:101A00000E94B2080E948A0560E080E00E943306CE
:101A10006FE871E085E393E00E94480661E082E0B0
:101A20000E94330640911D0250911E0260911F02D8
:101A30007091200222E085E393E00E94D40661E0E9
:101A400088E00E94330668E871E085E393E00E9435
:101A500048060E9430044B015C0100E00E94300403
:101A6000681979098A099B09683E734081059105C7
:101A700008F4C9C1002309F4C8C34090D2025090B1
:101A8000D3026090D4027090D5028090DA029090D8
:101A9000DB02A090DC02B090DD0280910E039091F9
:101AA0000F03A0911003B09111038F3F9F4FAF4FD1
:101AB000BF4F11F00E943004FFEF4F16F9EC5F06A4
:101AC000FAE96F06FBE37F0609F496C3C301B2018E
:101AD0000E94D91320E034E244E759E40E94B4158F
:101AE0002B013C01C501B4010E94D91320E034E26E
:101AF00044E759E40E94B4154B015C010E948A0539
:101B000060E080E00E943306C301B2010E94EA0750
:101B1000CE0101960E94A708CE0101960E944B08B3
:101B2000BC018CE693E00E949008CE0101960E94D1
:101B3000B20869EA71E085E393E00E94480669EA29
:101B400071E085E292E00E94480622E0B301A20122
:101B500085E292E00E94D40666E371E085E292E0BD
:101B60000E94480625E0B301A20185E393E00E94AC
:101B7000D40661E080E00E9433066EEA71E085E3FE
:101B800093E00E9448066EEA71E085E292E00E94CE
:101B9000480622E0B501A40185E292E00E94D40645
:101BA00066E371E085E292E00E944806C501B40157
:101BB0000E94EA07CE0101960E94A708CE01019675
:101BC0000E944B08BC018CE693E00E949008CE0175
:101BD00001960E94B20825E0B501A40185E393E0D7
:101BE0000E94D40664E670E080E090E00E94FE036C
:101BF00063EB71E085E292E00E94480685E292E0A4
:101C00000E9457068DE493E00E94570650E040E0A2
:101C100068E371E08CE693E00E946F08E114F10440
:101C200009F46CCE0E948502882309F467CE0E94D5
:101C3000000064CE9E3040F42850310981E001C09C
:101C4000880F2A95EAF7F6CD2E503109F7CF1A32D0
:101C500009F405C11C3209F0BBC28091160381272B
:101C600080931603FCC090912803F0E0E85EFC4FDF
:101C7000108270901703772009F46AC1209118032D
:101C8000822F022E000C990B3FEB320F363008F0FA
:101C9000EBC0C7978295807F90911903292F092E59
:101CA000000C330B4FEB490F463008F0E5C02753CB
:101CB0003109820F90911603891340C170902A0355
:101CC000772009F4CFC080912F03909130030196C3
:101CD0009093300380932F0380910A0390910B031C
:101CE000A0910C03B0910D0380930603909307031A
:101CF000A0930803B09309038091120390911303FA
:101D0000A0911403B091150380930E0390930F03D9
:101D1000A0931003B093110380912703882309F443
:101D2000B4C0813009F060C08091C6029091C702B2
:101D3000A091C802B091C9028093C2029093C302DD
:101D4000A093C402B093C5028091CE029091CF02BD
:101D5000A091D002B091D1028093CA029093CB029D
:101D6000A093CC02B093CD028091D6029091D7027D
:101D7000A091D802B091D9028093D2029093D3025D
:101D8000A093D402B093D5028091DE029091DF023D
:101D9000A091E002B091E1028093DA029093DB021D
:101DA000A093DC02B093DD028091EE029091EF02ED
:101DB000A091F002B091F1028093EA029093EB02BD
:101DC000A093EC02B093ED028091F6029091F7029D
:101DD000A091F802B091F9028093F2029093F3027D
:101DE000A093F402B093F502809128038F5F809353
:101DF00028031092290381E01A3209F080E08093D1
:101E000017037110072D85E292E00E947902892B59
:101E100009F424CE85E292E00E945702182F8091A7
:101E20002B0390912C03A0912D03B0912E030196CA
:101E3000A11DB11D80932B0390932C03A0932D0320
:101E4000B0932E03143209F4B6C1E0912903153280
:101E50000CF0FDCE1A3019F01D3009F0B9C1EF3089
:101E600008F401CF712CC0CF2156263018F48755C5
:101E7000910910CFC0970ECF9156963018F4275580
:101E8000310917CF2053310914CF8091E602909188
:101E9000E702A091E802B091E9028093E2029093F8
:101EA000E302A093E402B093E5028091C602909110
:101EB000C702A091C802B091C9028093C202909358
:101EC000C302A093C402B093C5028091D602909140
:101ED000D702A091D802B091D9028093D2029093F8
:101EE000D302A093D402B093D5028091DE029091E8
:101EF000DF02A091E002B091E1028093DA029093B8
:101F0000DB02A093DC02B093DD0280910403909188
:101F1000050390930303809302038091FE02909146
:101F2000FF02A0910003B09101038093FA02909305
:101F3000FB02A093FC02B093FD0256CF80913103C7
:101F400090913203019690933203809331038ACFAC
:101F500091111CC0A8E1B3E04DE951E09D01F901E8
:101F600081919F01882309F47DC1FA019191AF010C
:101F70008917A9F3E3EAF1E08D91882309F475C18B
:101F800091918917C9F3D09227032ECFE0912703AF
:101F9000E23009F467CF80911803882309F462CFF7
:101FA00020E2E29FF0011124E92B3197E932F1059B
:101FB00008F01ACFE252F04F0C94A51624103F10EF
:101FC00054106F107A10B410BB10C510D010F40E5E
:101FD000F40EF40EF40EF40EF40EF40EF40EF40EF1
:101FE000F40EF40EF40EF40EF40EF40EF40EF40EE1
:101FF000F40EF40EF40EF40EF40EF40E2410391058
:102000003F1054106F107A109510A0100710E8E1DF
:10201000F3E020E030E0A901619080ED860D8A3088
:1020200008F099C0AAE0B0E00E94F614262D660CD4
:10203000330B440B550B260F371F481F591F2053D6
:10204000310941095109E8CF0E940A016093C60293
:102050007093C7028093C8029093C9020E94300413
:1020600060930A0370930B0380930C0390930D030A
:10207000BBCE91E0813409F47BC090E079C00E942E
:102080007C016093D6027093D7028093D80290931C
:10209000D9020E943004609312037093130380935B
:1020A000140390931503A0CE833509F0DBCE809105
:1020B000D6029091D702A091D802B091D902B095E2
:1020C000A095909581959F4FAF4FBF4F8093D602BB
:1020D0009093D702A093D802B093D90285CE0E94E4
:1020E0007C016093DE027093DF028093E0029093A4
:1020F000E1027ACE873509F0B5CE8091DE0290916B
:10210000DF02A091E002B091E102B095A095909518
:1021100081959F4FAF4FBF4F8093DE029093DF02B8
:10212000A093E002B093E1025FCE0E940A016093A7
:10213000EE027093EF028093F0029093F10254CE7E
:102140000E940A016093F6027093F7028093F802EE
:102150009093F90249CE2093CE023093CF02409360
:10216000D0025093D10240CE91E081330CF485CF60
:1021700090932A0339CE88E193E00E947511992744
:1021800090930503809304032FCE0E940A0160936D
:10219000FE027093FF02809300039093010324CE0C
:1021A0000E940A016093E6027093E7028093E802BE
:1021B0009093E90219CE10922903109228031092ED
:1021C0001603D09227031092170310922A031BCEF6
:1021D000EE3040F481E08E0F80932903F0E0E85E5A
:1021E000FC4F10838091170381110DCE809116034F
:1021F00018271093160307CE412C512C8AE7682E1E
:1022000084E4782E5301420179CC60E070E0CB0188
:102210000E94EA07CE0101960E94A708CE0101960E
:102220000E944B08BC018CE693E00E949008CE010E
:1022300001960E94B20860E070E0CB010E94EA07BC
:10224000CE0101960E94A708CE0101960E944B087C
:10225000BC018CE693E00E949008CE0101960E949A
:10226000B208C0CCC0922703BFCD10922703BCCDCB
:1022700088E291E090934E0380934D0380911B027E
:1022800090911C028D54934071F4E0916003F091A1
:1022900061039081809162038095892380831092ED
:1022A0001C0210921B028CE693E00C94B208EF9291
:1022B0000F931F93CF93DF93E80134E047FD34E1A0
:1022C000042E000C550B57FF03C051954195510941
:1022D000E32E022F242FAE010E949B11CE01DF912D
:1022E000CF911F910F91EF900895FC0188279927B6
:1022F000E89421912032E9F3293010F02E30C8F310
:102300002B3241F02D3239F4689404C00E949311AD
:10231000820F911D219120532A30C0F31EF4909515
:1023200081959F4F08957AE0979F902D879F802DEC
:10233000910D11240895A9E0B0E0E1EAF1E10C94D7
:1023400007156A01F22EB02E102FFBE3AF2EA01658
:1023500008F41BE31F5F012F27E0AE014F5F5F4FC3
:102360000E94FA12BC018981982F9970913009F46A
:102370003FC09BE2E1FC04C09E2D9170E0FC3AC09E
:102380005E2D5071E82FE87083FF46C084E0911104
:1023900001C083E0EF2DE81B8F1508F0E0E0D601C7
:1023A0008E2F20E2552351F1992329F0D6019C93D9
:1023B000C60101966C0196012D5F3F4FE2FE24C0DD
:1023C0008EE4D6018C9391E411969C93119712960A
:1023D0008C93D9018E2F90E281111BC0E20FF32F55
:1023E000F11D10828EEF9FEF2996ECE00C942315DF
:1023F0009DE2C6CF90E2C4CF2D9381508111FCCFD6
:10240000CE0ED11CE0E0D0CF8EE6D6018C9391E6C3
:10241000DBCF9D938150E0CF482F447082FF3DC0B9
:1024200084E0911101C083E08F1510F4EF2DE81BBB
:10243000D6018E2F20E2552309F1992329F0D601E8
:102440009C93C60101966C0196012D5F3F4FE2FE01
:102450001BC089E4D6018C938EE411968C9311975E
:1024600086E412968C93D9018E2F90E2882309F48A
:10247000B5CF9D938150FACF2D9381508111FCCF20
:10248000CE0ED11CE0E0D9CF89E6D6018C938EE642
:1024900011968C93119786E6E4CF9B0177FF02C0DB
:1024A00030E020E0A1E0B0E0911102C0B0E0A0E097
:1024B000F9013196AE0FBF1F8B2C912CBB2009F474
:1024C00061C05401EFEFAE1ABE0AAA0DBB1DFA1689
:1024D0001B0619F014F04F2D4A1B511188C0E3FC64
:1024E00059C07601A42FB0E2A1114FC0C40ED11C77
:1024F000992309F45BC040E0D6011196F601908360
:102500006D01552309F448C0012F060F9A81582FF9
:10251000507184FF03C0913309F4015010160CF080
:1025200047C0093008F008E0EEE2FE2E5B01A01A79
:10253000B10885019194819491082F3F320729F4C5
:10254000D601FC92F60131966F016217730794F180
:10255000021713077CF5DB01A21BB30BAA24A3947B
:10256000B12CAC0EBD1EAA0DBB1D11968C91215035
:102570003109D601119628153905F4F0F60180834A
:102580006D01DBCFB12CA12CA0CFF701B1937F015E
:10259000A150AACF9111B0CFD601942F50E302C021
:1025A0005D9391509111FCCFC40ED11C40E0ACCF93
:1025B00001E0BACF80E3DBCF6217730731F49633C3
:1025C00088F4953311F4552369F0F6018083FD01F9
:1025D000842F90E2811108C0A40FB11D1C9290E0DD
:1025E00080E002CF81E3F1CF91938150F3CF91113D
:1025F00083CF8ACF283008F027E03327DA01990FFC
:10260000311D87FD916000966105710539F43260D6
:102610002E5F3D9330E32A95E1F708959F3F30F018
:1026200080387105610509F03C5F3C5F3D93913056
:1026300008F08068911DDF93CF931F930F93FF9253
:10264000EF92192F987F9695E92F96959695E90F19
:10265000FF27EE53FF4F99273327EE24FF24A701CE
:10266000E70105900894079428F4360FE71EF81E3A
:10267000491F511D660F771F881F991F0694A1F7E8
:102680000590079428F4E70EF81E491F561FC11D38
:10269000770F881F991F661F0694A1F7059007946E
:1026A00028F4F80E491F561FC71FD11D880F991F08
:1026B000661F771F0694A1F70590079420F4490F31
:1026C000561FC71FD81F990F661F771F881F0694B4
:1026D000A9F784911095177041F0D695C795579535
:1026E0004795F794E7941A95C1F7E8E6F0E0689407
:1026F0001590159135916591959105907FE27395AF
:10270000E118F10A430B560BC90BD009C0F7E10CD5
:10271000F11E431F561FC91FD01D7EF4703311F4E4
:102720008A95E6CFE894015030F0080F0AF40027AC
:10273000021708F4202F2395022F7A3328F079E32B
:102740007D932A95E9F710C07D932A9589F6069422
:1027500097956795379517951794E118F10A430BEC
:10276000560BC90BD00998F023957E9173957A3357
:1027700008F070E37C932013B8F77E9170617D932D
:1027800030F0839571E37D9370E32A95E1F711248E
:10279000EF90FF900F911F91CF91DF91992787FDC7
:1027A000909508950E94141408F481E00895E89427
:1027B00009C097FB3EF490958095709561957F4F89
:1027C0008F4F9F4F9923A9F0F92F96E9BB27939537
:1027D000F695879577956795B795F111F8CFFAF447
:1027E000BB0F11F460FF1BC06F5F7F4F8F4F9F4F78
:1027F00016C0882311F096E911C0772321F09EE8D6
:10280000872F762F05C0662371F096E8862F70E03B
:1028100060E02AF09A95660F771F881FDAF7880F15
:102820009695879597F90895990F0008550FAA0B6B
:10283000E0E8FEEF16161706E807F907C0F01216D3
:102840001306E407F50798F0621B730B840B950BD6
:1028500039F40A2661F0232B242B252B21F408952B
:102860000A2609F4A140A6958FEF811D811D0895C8
:102870000E944B140C94BC140E94AE1438F00E94B9
:10288000B51420F0952311F00C94A5140C94AB14FE
:1028900011240C94F0140E94CD1470F3959FC1F391
:1028A000950F50E0551F629FF001729FBB27F00DFE
:1028B000B11D639FAA27F00DB11DAA1F649F662753
:1028C000B00DA11D661F829F2227B00DA11D621FA2
:1028D000739FB00DA11D621F839FA00D611D221F5C
:1028E000749F3327A00D611D231F849F600D211D40
:1028F000822F762F6A2F11249F5750409AF0F1F0C3
:1029000088234AF0EE0FFF1FBB1F661F771F881F2B
:1029100091505040A9F79E3F510580F00C94A514AA
:102920000C94F0145F3FE4F3983ED4F386957795CA
:102930006795B795F795E7959F5FC1F7FE2B880FD1
:10294000911D9695879597F9089597F99F6780E867
:1029500070E060E008959FEF80EC089500240A94F1
:102960001616170618060906089500240A9412166A
:102970001306140605060895092E0394000C11F49D
:10298000882352F0BB0F40F4BF2B11F460FF04C04A
:102990006F5F7F4F8F4F9F4F089557FD9058440FA3
:1029A000551F59F05F3F71F04795880F97FB991FAE
:1029B00061F09F3F79F0879508951216130614066B
:1029C000551FF2CF4695F1DF08C0161617061806F8
:1029D000991FF1CF86957105610508940895E894D3
:1029E000BB2766277727CB0197F908950E943815F2
:1029F000A59F900DB49F900DA49F800D911D112453
:102A000008952F923F924F925F926F927F928F9292
:102A10009F92AF92BF92CF92DF92EF92FF920F936D
:102A20001F93CF93DF93CDB7DEB7CA1BDB0B0FB677
:102A3000F894DEBF0FBECDBF09942A883988488834
:102A40005F846E847D848C849B84AA84B984C884CA
:102A5000DF80EE80FD800C811B81AA81B981CE0FC1
:102A6000D11D0FB6F894DEBF0FBECDBFED010895A6
:102A7000A29FB001B39FC001A39F700D811D1124BF
:102A8000911DB29F700D811D1124911D0895505804
:102A9000BB27AA270E945F150C94BC140E94AE1499
:102AA00038F00E94B51420F039F49F3F19F426F451
:102AB0000C94AB140EF4E095E7FB0C94A514E92FED
:102AC0000E94CD1458F3BA1762077307840795075D
:102AD00020F079F4A6F50C94EF140EF4E0950B2E8B
:102AE000BA2FA02D0B01B90190010C01CA01A00160
:102AF0001124FF27591B99F0593F50F4503E68F1BB
:102B00001A16F040A22F232F342F4427585FF3CFFB
:102B1000469537952795A795F0405395C9F77EF4CC
:102B20001F16BA0B620B730B840BBAF09150A1F015
:102B3000FF0FBB1F661F771F881FC2F70EC0BA0F9B
:102B4000621F731F841F48F4879577956795B79523
:102B5000F7959E3F08F0B0CF9395880F08F099271E
:102B6000EE0F9795879508950E94C8150C94BC1494
:102B70000E94B51458F00E94AE1440F029F45F3F53
:102B800029F00C94A51451110C94F0140C94AB146E
:102B90000E94CD1468F39923B1F3552391F3951B4B
:102BA000550BBB27AA2762177307840738F09F5F6E
:102BB0005F4F220F331F441FAA1FA9F335D00E2EDB
:102BC0003AF0E0E832D091505040E695001CCAF748
:102BD0002BD0FE2F29D0660F771F881FBB1F26170B
:102BE00037074807AB07B0E809F0BB0B802DBF01E2
:102BF000FF2793585F4F3AF09E3F510578F00C94B1
:102C0000A5140C94F0145F3FE4F3983ED4F386953A
:102C100077956795B795F7959F5FC9F7880F911DD1
:102C20009695879597F90895E1E0660F771F881FBD
:102C3000BB1F621773078407BA0720F0621B730B70
:102C4000840BBA0BEE1F88F7E09508950E94D51407
:102C500088F09F5798F0B92F9927B751B0F0E1F05D
:102C6000660F771F881F991F1AF0BA95C9F714C00D
:102C7000B13091F00E94EF14B1E008950C94EF147C
:102C8000672F782F8827B85F39F0B93FCCF3869546
:102C900077956795B395D9F73EF4909580957095A3
:102CA00061957F4F8F4F9F4F08950E94141408F431
:102CB0008FEF08950E941414880B990B0895DB017F
:102CC0008F939F930E94F614BF91AF91A29F800DA6
:102CD000911DA39F900DB29F900D1124089597FB15
:102CE000072E16F4009407D077FD09D00E94B31682
:102CF00007FC05D03EF4909581959F4F08957095FF
:102D000061957F4F0895A1E21A2EAA1BBB1BFD01FE
:102D10000DC0AA1FBB1FEE1FFF1FA217B307E407BA
:102D2000F50720F0A21BB30BE40BF50B661F771F12
:102D3000881F991F1A9469F76095709580959095F2
:102D40009B01AC01BD01CF010895EE0FFF1F05905F
:102D5000F491E02D0994B7FF0C94F6140E94F61438
:102D6000821B930B0895AA1BBB1B51E107C0AA1F2E
:102D7000BB1FA617B70710F0A61BB70B881F991F1C
:102D80005A95A9F780959095BC01CD0108950F93B0
:102D90001F93CF93DF938230910510F482E090E08F
:102DA000E0917403F091750330E020E0B0E0A0E022
:102DB000309799F42115310509F44AC0281B390BC5
:102DC00024303105D8F58A819B816115710589F11F
:102DD000FB0193838283FE0111C0408151810281F6
:102DE000138148175907E0F04817590799F41097CD
:102DF00061F012960C93129713961C933296CF01A2
:102E0000DF91CF911F910F91089500937403109358
:102E10007503F4CF2115310551F04217530738F0EF
:102E2000A901DB019A01BD01DF01F801C1CFEF016A
:102E3000F9CF9093750380937403CDCFFE01E20F19
:102E4000F31F819391932250310939832883D7CF7F
:102E50002091720330917303232B41F420910201DE
:102E6000309103013093730320937203209100018A
:102E7000309101012115310541F42DB73EB7409144
:102E8000040150910501241B350BE0917203F09170
:102E90007303E217F307A0F42E1B3F0B2817390723
:102EA00078F0AC014E5F5F4F2417350748F04E0FA6
:102EB0005F1F5093730340937203819391939FCF4D
:102EC000F0E0E0E09CCFCF93DF930097E9F0FC01C6
:102ED000329713821282A0917403B0917503ED01B1
:102EE00030E020E01097A1F420813181820F931F00
:102EF00020917203309173032817390709F061C0DC
:102F0000F0937303E0937203DF91CF910895EA0188
:102F1000CE17DF07E8F54A815B819E014115510517
:102F2000B1F7E901FB83EA8349915991C40FD51F99
:102F3000EC17FD0761F4808191810296840F951F43
:102F4000E90199838883828193819B838A83F0E05E
:102F5000E0E012968D919C9113970097B9F52D9111
:102F60003C911197CD010296820F931F209172031D
:102F7000309173032817390739F6309751F51092BD
:102F8000750310927403B0937303A0937203BCCFC4
:102F9000D383C28340815181840F951FC817D907FD
:102FA00061F44E5F5F4F88819981480F591F5183AB
:102FB00040838A819B81938382832115310509F0A7
:102FC000B0CFF0937503E09374039ECFFD01DC0155
:102FD000C0CF13821282D7CFB0E0A0E0E2EFF7E1DA
:102FE0000C9403158C01009751F4CB010E94C71675
:102FF0008C01C801CDB7DEB7E0E10C941F15FC01D0
:10300000E60FF71F9C0122503109E217F30708F47D
:103010009DC0D901CD91DC911197C617D70798F0C3
:10302000C530D10530F3CE0104978617970708F312
:10303000C61BD70B2297C193D1936D937C93CF017D
:103040000E946317D6CF5B01AC1ABD0A4C018C0EEF
:103050009D1EA0917403B0917503512C412CF12C4D
:10306000E12C109731F580917203909173038815CC
:10307000990509F05CC04616570608F058C08091C3
:10308000000190910101009741F48DB79EB74091E6
:10309000040150910501841B950BE817F90708F00E
:1030A00055C0F0937303E0937203F9017183608359
:1030B000A0CF8D919C91119712966C9012971396B8
:1030C0007C901397A815B90559F56C0142E0C40E20
:1030D000D11CCA14DB0420F1AC014A195B09DA01E6
:1030E0001296159780F06282738251834083D901D2
:1030F0006D937C93E114F10471F0D7011396FC9366
:10310000EE93129776CF22968C0F9D1FF901918333
:103110008083F301EFCFF0937503E093740369CFDD
:103120004816590608F42C017D01D3019ACFCB0132
:103130000E94C7167C01009749F0AE01B8010E94B9
:10314000A918C8010E946317870153CF10E000E05F
:1031500050CFFB01DC0102C001900D924150504064
:10316000D8F70895FB01DC0101900D920020E1F7F2
:10317000089510E0CFEDD0E004C0FE010E94A51636
:0C3180002196C03ED107C9F7F894FFCF9C
:10318C0000007603800000000000BB021B02480216
:10319C000803790257026B020000000042061B0272
:1031AC00EB04EA040000000055041B02EB04540479
:1031BC00B104C9043C040D0A006E616E00696E66B0
:1031CC00006F7666007878002D56656869636C65CB
:1031DC0020526F7574696E672D002D4D6F6E69747A
:1031EC006F72207379732D0053706565644D65742F
:1031FC006572207761697420746F20626520616349
:10320C007469766174656400204B6D2F68720020C0
:10321C002D2D2D5370656564202D2D2D004750529A
:10322C004D43004750474741004C41543A004C4FE6
:10323C004E3A005374722073656E6420746F205084
:10324C007974686F6E207363726970743A20000031
:00000001FF
